{
  "contractName": "ERC1155MixedFungibleMintable",
  "abi": [
    {
      "constant": true,
      "inputs": [
        {
          "name": "_owner",
          "type": "address"
        },
        {
          "name": "_id",
          "type": "uint256"
        }
      ],
      "name": "balanceOf",
      "outputs": [
        {
          "name": "",
          "type": "uint256"
        }
      ],
      "payable": false,
      "stateMutability": "view",
      "type": "function"
    },
    {
      "constant": true,
      "inputs": [
        {
          "name": "_interfaceId",
          "type": "bytes4"
        }
      ],
      "name": "supportsInterface",
      "outputs": [
        {
          "name": "",
          "type": "bool"
        }
      ],
      "payable": false,
      "stateMutability": "view",
      "type": "function"
    },
    {
      "constant": true,
      "inputs": [
        {
          "name": "",
          "type": "uint256"
        }
      ],
      "name": "maxIndex",
      "outputs": [
        {
          "name": "",
          "type": "uint256"
        }
      ],
      "payable": false,
      "stateMutability": "view",
      "type": "function"
    },
    {
      "constant": false,
      "inputs": [
        {
          "name": "_from",
          "type": "address"
        },
        {
          "name": "_to",
          "type": "address"
        },
        {
          "name": "_ids",
          "type": "uint256[]"
        },
        {
          "name": "_values",
          "type": "uint256[]"
        },
        {
          "name": "_data",
          "type": "bytes"
        }
      ],
      "name": "safeBatchTransferFrom",
      "outputs": [],
      "payable": false,
      "stateMutability": "nonpayable",
      "type": "function"
    },
    {
      "constant": true,
      "inputs": [
        {
          "name": "_owners",
          "type": "address[]"
        },
        {
          "name": "_ids",
          "type": "uint256[]"
        }
      ],
      "name": "balanceOfBatch",
      "outputs": [
        {
          "name": "",
          "type": "uint256[]"
        }
      ],
      "payable": false,
      "stateMutability": "view",
      "type": "function"
    },
    {
      "constant": true,
      "inputs": [
        {
          "name": "_id",
          "type": "uint256"
        }
      ],
      "name": "isNonFungibleItem",
      "outputs": [
        {
          "name": "",
          "type": "bool"
        }
      ],
      "payable": false,
      "stateMutability": "pure",
      "type": "function"
    },
    {
      "constant": true,
      "inputs": [
        {
          "name": "_id",
          "type": "uint256"
        }
      ],
      "name": "ownerOf",
      "outputs": [
        {
          "name": "",
          "type": "address"
        }
      ],
      "payable": false,
      "stateMutability": "view",
      "type": "function"
    },
    {
      "constant": true,
      "inputs": [
        {
          "name": "_id",
          "type": "uint256"
        }
      ],
      "name": "getNonFungibleBaseType",
      "outputs": [
        {
          "name": "",
          "type": "uint256"
        }
      ],
      "payable": false,
      "stateMutability": "pure",
      "type": "function"
    },
    {
      "constant": true,
      "inputs": [
        {
          "name": "_id",
          "type": "uint256"
        }
      ],
      "name": "isNonFungibleBaseType",
      "outputs": [
        {
          "name": "",
          "type": "bool"
        }
      ],
      "payable": false,
      "stateMutability": "pure",
      "type": "function"
    },
    {
      "constant": true,
      "inputs": [
        {
          "name": "_id",
          "type": "uint256"
        }
      ],
      "name": "getNonFungibleIndex",
      "outputs": [
        {
          "name": "",
          "type": "uint256"
        }
      ],
      "payable": false,
      "stateMutability": "pure",
      "type": "function"
    },
    {
      "constant": false,
      "inputs": [
        {
          "name": "_operator",
          "type": "address"
        },
        {
          "name": "_approved",
          "type": "bool"
        }
      ],
      "name": "setApprovalForAll",
      "outputs": [],
      "payable": false,
      "stateMutability": "nonpayable",
      "type": "function"
    },
    {
      "constant": true,
      "inputs": [
        {
          "name": "_id",
          "type": "uint256"
        }
      ],
      "name": "isFungible",
      "outputs": [
        {
          "name": "",
          "type": "bool"
        }
      ],
      "payable": false,
      "stateMutability": "pure",
      "type": "function"
    },
    {
      "constant": true,
      "inputs": [
        {
          "name": "",
          "type": "uint256"
        }
      ],
      "name": "creators",
      "outputs": [
        {
          "name": "",
          "type": "address"
        }
      ],
      "payable": false,
      "stateMutability": "view",
      "type": "function"
    },
    {
      "constant": true,
      "inputs": [
        {
          "name": "_id",
          "type": "uint256"
        }
      ],
      "name": "isNonFungible",
      "outputs": [
        {
          "name": "",
          "type": "bool"
        }
      ],
      "payable": false,
      "stateMutability": "pure",
      "type": "function"
    },
    {
      "constant": true,
      "inputs": [
        {
          "name": "_owner",
          "type": "address"
        },
        {
          "name": "_operator",
          "type": "address"
        }
      ],
      "name": "isApprovedForAll",
      "outputs": [
        {
          "name": "",
          "type": "bool"
        }
      ],
      "payable": false,
      "stateMutability": "view",
      "type": "function"
    },
    {
      "constant": false,
      "inputs": [
        {
          "name": "_from",
          "type": "address"
        },
        {
          "name": "_to",
          "type": "address"
        },
        {
          "name": "_id",
          "type": "uint256"
        },
        {
          "name": "_value",
          "type": "uint256"
        },
        {
          "name": "_data",
          "type": "bytes"
        }
      ],
      "name": "safeTransferFrom",
      "outputs": [],
      "payable": false,
      "stateMutability": "nonpayable",
      "type": "function"
    },
    {
      "anonymous": false,
      "inputs": [
        {
          "indexed": true,
          "name": "_operator",
          "type": "address"
        },
        {
          "indexed": true,
          "name": "_from",
          "type": "address"
        },
        {
          "indexed": true,
          "name": "_to",
          "type": "address"
        },
        {
          "indexed": false,
          "name": "_id",
          "type": "uint256"
        },
        {
          "indexed": false,
          "name": "_value",
          "type": "uint256"
        }
      ],
      "name": "TransferSingle",
      "type": "event"
    },
    {
      "anonymous": false,
      "inputs": [
        {
          "indexed": true,
          "name": "_operator",
          "type": "address"
        },
        {
          "indexed": true,
          "name": "_from",
          "type": "address"
        },
        {
          "indexed": true,
          "name": "_to",
          "type": "address"
        },
        {
          "indexed": false,
          "name": "_ids",
          "type": "uint256[]"
        },
        {
          "indexed": false,
          "name": "_values",
          "type": "uint256[]"
        }
      ],
      "name": "TransferBatch",
      "type": "event"
    },
    {
      "anonymous": false,
      "inputs": [
        {
          "indexed": true,
          "name": "_owner",
          "type": "address"
        },
        {
          "indexed": true,
          "name": "_operator",
          "type": "address"
        },
        {
          "indexed": false,
          "name": "_approved",
          "type": "bool"
        }
      ],
      "name": "ApprovalForAll",
      "type": "event"
    },
    {
      "anonymous": false,
      "inputs": [
        {
          "indexed": false,
          "name": "_value",
          "type": "string"
        },
        {
          "indexed": true,
          "name": "_id",
          "type": "uint256"
        }
      ],
      "name": "URI",
      "type": "event"
    },
    {
      "constant": false,
      "inputs": [
        {
          "name": "_uri",
          "type": "string"
        },
        {
          "name": "_isNF",
          "type": "bool"
        }
      ],
      "name": "create",
      "outputs": [
        {
          "name": "_type",
          "type": "uint256"
        }
      ],
      "payable": false,
      "stateMutability": "nonpayable",
      "type": "function"
    },
    {
      "constant": false,
      "inputs": [
        {
          "name": "_type",
          "type": "uint256"
        },
        {
          "name": "_to",
          "type": "address[]"
        }
      ],
      "name": "mintNonFungible",
      "outputs": [],
      "payable": false,
      "stateMutability": "nonpayable",
      "type": "function"
    },
    {
      "constant": false,
      "inputs": [
        {
          "name": "_id",
          "type": "uint256"
        },
        {
          "name": "_to",
          "type": "address[]"
        },
        {
          "name": "_quantities",
          "type": "uint256[]"
        }
      ],
      "name": "mintFungible",
      "outputs": [],
      "payable": false,
      "stateMutability": "nonpayable",
      "type": "function"
    }
  ],
  "bytecode": "0x608060405234801561001057600080fd5b50612bd4806100206000396000f3fe608060405260043610610106576000357c0100000000000000000000000000000000000000000000000000000000900463ffffffff168062fdd58e1461010b57806301ffc9a71461017a57806308d7d469146101ec5780632eb2c2d61461023b5780634e1273f4146103ab5780635e81b958146104db5780636352211e1461052e5780636f969c2d146105a95780637269a327146105f857806378b272211461064b5780639cca1c6414610730578063a22cb4651461077f578063adebf6f2146107dc578063cc10e4011461082f578063cd53d08e146108d5578063e44591f014610950578063e985e9c5146109a3578063f242432a14610a2c578063f941908814610b06575b600080fd5b34801561011757600080fd5b506101646004803603604081101561012e57600080fd5b81019080803573ffffffffffffffffffffffffffffffffffffffff16906020019092919080359060200190929190505050610b96565b6040518082815260200191505060405180910390f35b34801561018657600080fd5b506101d26004803603602081101561019d57600080fd5b8101908080357bffffffffffffffffffffffffffffffffffffffffffffffffffffffff19169060200190929190505050610c79565b604051808215151515815260200191505060405180910390f35b3480156101f857600080fd5b506102256004803603602081101561020f57600080fd5b8101908080359060200190929190505050610d62565b6040518082815260200191505060405180910390f35b34801561024757600080fd5b506103a9600480360360a081101561025e57600080fd5b81019080803573ffffffffffffffffffffffffffffffffffffffff169060200190929190803573ffffffffffffffffffffffffffffffffffffffff169060200190929190803590602001906401000000008111156102bb57600080fd5b8201836020820111156102cd57600080fd5b803590602001918460208302840111640100000000831117156102ef57600080fd5b90919293919293908035906020019064010000000081111561031057600080fd5b82018360208201111561032257600080fd5b8035906020019184602083028401116401000000008311171561034457600080fd5b90919293919293908035906020019064010000000081111561036557600080fd5b82018360208201111561037757600080fd5b8035906020019184600183028401116401000000008311171561039957600080fd5b9091929391929390505050610d7a565b005b3480156103b757600080fd5b50610484600480360360408110156103ce57600080fd5b81019080803590602001906401000000008111156103eb57600080fd5b8201836020820111156103fd57600080fd5b8035906020019184602083028401116401000000008311171561041f57600080fd5b90919293919293908035906020019064010000000081111561044057600080fd5b82018360208201111561045257600080fd5b8035906020019184602083028401116401000000008311171561047457600080fd5b9091929391929390505050611470565b6040518080602001828103825283818151815260200191508051906020019060200280838360005b838110156104c75780820151818401526020810190506104ac565b505050509050019250505060405180910390f35b3480156104e757600080fd5b50610514600480360360208110156104fe57600080fd5b8101908080359060200190929190505050611663565b604051808215151515815260200191505060405180910390f35b34801561053a57600080fd5b506105676004803603602081101561055157600080fd5b81019080803590602001909291905050506116d2565b604051808273ffffffffffffffffffffffffffffffffffffffff1673ffffffffffffffffffffffffffffffffffffffff16815260200191505060405180910390f35b3480156105b557600080fd5b506105e2600480360360208110156105cc57600080fd5b810190808035906020019092919050505061170f565b6040518082815260200191505060405180910390f35b34801561060457600080fd5b506106316004803603602081101561061b57600080fd5b8101908080359060200190929190505050611754565b604051808215151515815260200191505060405180910390f35b34801561065757600080fd5b5061072e6004803603606081101561066e57600080fd5b81019080803590602001909291908035906020019064010000000081111561069557600080fd5b8201836020820111156106a757600080fd5b803590602001918460208302840111640100000000831117156106c957600080fd5b9091929391929390803590602001906401000000008111156106ea57600080fd5b8201836020820111156106fc57600080fd5b8035906020019184602083028401116401000000008311171561071e57600080fd5b90919293919293905050506117c2565b005b34801561073c57600080fd5b506107696004803603602081101561075357600080fd5b8101908080359060200190929190505050611a30565b6040518082815260200191505060405180910390f35b34801561078b57600080fd5b506107da600480360360408110156107a257600080fd5b81019080803573ffffffffffffffffffffffffffffffffffffffff169060200190929190803515159060200190929190505050611a6e565b005b3480156107e857600080fd5b50610815600480360360208110156107ff57600080fd5b8101908080359060200190929190505050611b6f565b604051808215151515815260200191505060405180910390f35b34801561083b57600080fd5b506108bf6004803603604081101561085257600080fd5b810190808035906020019064010000000081111561086f57600080fd5b82018360208201111561088157600080fd5b803590602001918460018302840111640100000000831117156108a357600080fd5b9091929391929390803515159060200190929190505050611b9d565b6040518082815260200191505060405180910390f35b3480156108e157600080fd5b5061090e600480360360208110156108f857600080fd5b8101908080359060200190929190505050611d34565b604051808273ffffffffffffffffffffffffffffffffffffffff1673ffffffffffffffffffffffffffffffffffffffff16815260200191505060405180910390f35b34801561095c57600080fd5b506109896004803603602081101561097357600080fd5b8101908080359060200190929190505050611d67565b604051808215151515815260200191505060405180910390f35b3480156109af57600080fd5b50610a12600480360360408110156109c657600080fd5b81019080803573ffffffffffffffffffffffffffffffffffffffff169060200190929190803573ffffffffffffffffffffffffffffffffffffffff169060200190929190505050611d95565b604051808215151515815260200191505060405180910390f35b348015610a3857600080fd5b50610b04600480360360a0811015610a4f57600080fd5b81019080803573ffffffffffffffffffffffffffffffffffffffff169060200190929190803573ffffffffffffffffffffffffffffffffffffffff169060200190929190803590602001909291908035906020019092919080359060200190640100000000811115610ac057600080fd5b820183602082011115610ad257600080fd5b80359060200191846001830284011164010000000083111715610af457600080fd5b9091929391929390505050611e29565b005b348015610b1257600080fd5b50610b9460048036036040811015610b2957600080fd5b810190808035906020019092919080359060200190640100000000811115610b5057600080fd5b820183602082011115610b6257600080fd5b80359060200191846020830284011164010000000083111715610b8457600080fd5b909192939192939050505061236f565b005b6000610ba182611663565b15610c20578273ffffffffffffffffffffffffffffffffffffffff166002600084815260200190815260200160002060009054906101000a900473ffffffffffffffffffffffffffffffffffffffff1673ffffffffffffffffffffffffffffffffffffffff1614610c13576000610c16565b60015b60ff169050610c73565b60008083815260200190815260200160002060008473ffffffffffffffffffffffffffffffffffffffff1673ffffffffffffffffffffffffffffffffffffffff1681526020019081526020016000205490505b92915050565b60006301ffc9a77c0100000000000000000000000000000000000000000000000000000000027bffffffffffffffffffffffffffffffffffffffffffffffffffffffff1916827bffffffffffffffffffffffffffffffffffffffffffffffffffffffff19161480610d4a575063d9b67a267c0100000000000000000000000000000000000000000000000000000000027bffffffffffffffffffffffffffffffffffffffffffffffffffffffff1916827bffffffffffffffffffffffffffffffffffffffffffffffffffffffff1916145b15610d585760019050610d5d565b600090505b919050565b60056020528060005260406000206000915090505481565b600073ffffffffffffffffffffffffffffffffffffffff168773ffffffffffffffffffffffffffffffffffffffff1614151515610e1f576040517f08c379a000000000000000000000000000000000000000000000000000000000815260040180806020018281038252601b8152602001807f63616e6e6f742073656e6420746f207a65726f2061646472657373000000000081525060200191505060405180910390fd5b8383905086869050141515610e9c576040517f08c379a00000000000000000000000000000000000000000000000000000000081526004018080602001828103825260178152602001807f4172726179206c656e677468206d757374206d6174636800000000000000000081525060200191505060405180910390fd5b3373ffffffffffffffffffffffffffffffffffffffff168873ffffffffffffffffffffffffffffffffffffffff161480610f63575060011515600160008a73ffffffffffffffffffffffffffffffffffffffff1673ffffffffffffffffffffffffffffffffffffffff16815260200190815260200160002060003373ffffffffffffffffffffffffffffffffffffffff1673ffffffffffffffffffffffffffffffffffffffff16815260200190815260200160002060009054906101000a900460ff161515145b1515610ffd576040517f08c379a000000000000000000000000000000000000000000000000000000000815260040180806020018281038252602f8152602001807f4e656564206f70657261746f7220617070726f76616c20666f7220337264207081526020017f61727479207472616e73666572732e000000000000000000000000000000000081525060400191505060405180910390fd5b60008090505b8686905081101561128a576000878783818110151561101e57fe5b9050602002013590506000868684818110151561103757fe5b90506020020135905061104982611d67565b15611112578a73ffffffffffffffffffffffffffffffffffffffff166002600084815260200190815260200160002060009054906101000a900473ffffffffffffffffffffffffffffffffffffffff1673ffffffffffffffffffffffffffffffffffffffff161415156110bb57600080fd5b896002600084815260200190815260200160002060006101000a81548173ffffffffffffffffffffffffffffffffffffffff021916908373ffffffffffffffffffffffffffffffffffffffff16021790555061127d565b6111748160008085815260200190815260200160002060008e73ffffffffffffffffffffffffffffffffffffffff1673ffffffffffffffffffffffffffffffffffffffff168152602001908152602001600020546125c690919063ffffffff16565b60008084815260200190815260200160002060008d73ffffffffffffffffffffffffffffffffffffffff1673ffffffffffffffffffffffffffffffffffffffff1681526020019081526020016000208190555061122960008084815260200190815260200160002060008c73ffffffffffffffffffffffffffffffffffffffff1673ffffffffffffffffffffffffffffffffffffffff16815260200190815260200160002054826125df90919063ffffffff16565b60008084815260200190815260200160002060008c73ffffffffffffffffffffffffffffffffffffffff1673ffffffffffffffffffffffffffffffffffffffff168152602001908152602001600020819055505b5050806001019050611003565b508673ffffffffffffffffffffffffffffffffffffffff168873ffffffffffffffffffffffffffffffffffffffff163373ffffffffffffffffffffffffffffffffffffffff167f4a39dc06d4c0dbc64b70af90fd698a233a518aa5d07e595d983b8c0526c8f7fb898989896040518080602001806020018381038352878782818152602001925060200280828437600081840152601f19601f8201169050808301925050508381038252858582818152602001925060200280828437600081840152601f19601f820116905080830192505050965050505050505060405180910390a461138c8773ffffffffffffffffffffffffffffffffffffffff166125fb565b1561146657611465338989898980806020026020016040519081016040528093929190818152602001838360200280828437600081840152601f19601f82011690508083019250505050505050888880806020026020016040519081016040528093929190818152602001838360200280828437600081840152601f19601f8201169050808301925050505050505087878080601f016020809104026020016040519081016040528093929190818152602001838380828437600081840152601f19601f8201169050808301925050505050505061260e565b5b5050505050505050565b6060828290508585905014151561148657600080fd5b6060858590506040519080825280602002602001820160405280156114ba5781602001602082028038833980820191505090505b50905060008090505b8686905081101561165657600085858381811015156114de57fe5b9050602002013590506114f081611663565b156115b357878783818110151561150357fe5b9050602002013573ffffffffffffffffffffffffffffffffffffffff1673ffffffffffffffffffffffffffffffffffffffff166002600083815260200190815260200160002060009054906101000a900473ffffffffffffffffffffffffffffffffffffffff1673ffffffffffffffffffffffffffffffffffffffff161461158c57600061158f565b60015b60ff1683838151811015156115a057fe5b906020019060200201818152505061164a565b600080828152602001908152602001600020600089898581811015156115d557fe5b9050602002013573ffffffffffffffffffffffffffffffffffffffff1673ffffffffffffffffffffffffffffffffffffffff1673ffffffffffffffffffffffffffffffffffffffff16815260200190815260200160002054838381518110151561163b57fe5b90602001906020020181815250505b508060010190506114c3565b5080915050949350505050565b60007f80000000000000000000000000000000000000000000000000000000000000008083161480156116cb575060007fffffffffffffffffffffffffffffffffffffffffffffffffffffffffffffffff6fffffffffffffffffffffffffffffffff16831614155b9050919050565b60006002600083815260200190815260200160002060009054906101000a900473ffffffffffffffffffffffffffffffffffffffff169050919050565b600060807fffffffffffffffffffffffffffffffffffffffffffffffffffffffffffffffff6fffffffffffffffffffffffffffffffff169060020a0282169050919050565b60007f80000000000000000000000000000000000000000000000000000000000000008083161480156117bb575060007fffffffffffffffffffffffffffffffffffffffffffffffffffffffffffffffff6fffffffffffffffffffffffffffffffff168316145b9050919050565b843373ffffffffffffffffffffffffffffffffffffffff166004600083815260200190815260200160002060009054906101000a900473ffffffffffffffffffffffffffffffffffffffff1673ffffffffffffffffffffffffffffffffffffffff1614151561183057600080fd5b61183986611b6f565b151561184457600080fd5b60008090505b85859050811015611a27576000868683818110151561186557fe5b9050602002013573ffffffffffffffffffffffffffffffffffffffff1690506000858584818110151561189457fe5b9050602002013590506118ff6000808b815260200190815260200160002060008473ffffffffffffffffffffffffffffffffffffffff1673ffffffffffffffffffffffffffffffffffffffff16815260200190815260200160002054826125df90919063ffffffff16565b6000808b815260200190815260200160002060008473ffffffffffffffffffffffffffffffffffffffff1673ffffffffffffffffffffffffffffffffffffffff168152602001908152602001600020819055508173ffffffffffffffffffffffffffffffffffffffff16600073ffffffffffffffffffffffffffffffffffffffff163373ffffffffffffffffffffffffffffffffffffffff167fc3d58168c5ae7397731d063d5bbf3d657854427343f4c083240f7aacaa2d0f628c85604051808381526020018281526020019250505060405180910390a46119f68273ffffffffffffffffffffffffffffffffffffffff166125fb565b15611a1a57611a193333848c85602060405190810160405280600081525061291c565b5b505080600101905061184a565b50505050505050565b60007fffffffffffffffffffffffffffffffffffffffffffffffffffffffffffffffff6fffffffffffffffffffffffffffffffff1682169050919050565b80600160003373ffffffffffffffffffffffffffffffffffffffff1673ffffffffffffffffffffffffffffffffffffffff16815260200190815260200160002060008473ffffffffffffffffffffffffffffffffffffffff1673ffffffffffffffffffffffffffffffffffffffff16815260200190815260200160002060006101000a81548160ff0219169083151502179055508173ffffffffffffffffffffffffffffffffffffffff163373ffffffffffffffffffffffffffffffffffffffff167f17307eab39ab6107e8899845ad3d59bd9653f200f220920489ca2b5937696c3183604051808215151515815260200191505060405180910390a35050565b6000807f80000000000000000000000000000000000000000000000000000000000000008316149050919050565b600060806003600081546001019190508190559060020a0290508115611be3577f8000000000000000000000000000000000000000000000000000000000000000811790505b336004600083815260200190815260200160002060006101000a81548173ffffffffffffffffffffffffffffffffffffffff021916908373ffffffffffffffffffffffffffffffffffffffff160217905550600073ffffffffffffffffffffffffffffffffffffffff16600073ffffffffffffffffffffffffffffffffffffffff163373ffffffffffffffffffffffffffffffffffffffff167fc3d58168c5ae7397731d063d5bbf3d657854427343f4c083240f7aacaa2d0f62846000604051808381526020018281526020019250505060405180910390a46000848490501115611d2d57807f6bb7ff708619ba0610cba295a58592e0451dee2622938c8755667688daf3529b858560405180806020018281038252848482818152602001925080828437600081840152601f19601f820116905080830192505050935050505060405180910390a25b9392505050565b60046020528060005260406000206000915054906101000a900473ffffffffffffffffffffffffffffffffffffffff1681565b60007f8000000000000000000000000000000000000000000000000000000000000000808316149050919050565b6000600160008473ffffffffffffffffffffffffffffffffffffffff1673ffffffffffffffffffffffffffffffffffffffff16815260200190815260200160002060008373ffffffffffffffffffffffffffffffffffffffff1673ffffffffffffffffffffffffffffffffffffffff16815260200190815260200160002060009054906101000a900460ff16905092915050565b600073ffffffffffffffffffffffffffffffffffffffff168573ffffffffffffffffffffffffffffffffffffffff1614151515611ece576040517f08c379a000000000000000000000000000000000000000000000000000000000815260040180806020018281038252601b8152602001807f63616e6e6f742073656e6420746f207a65726f2061646472657373000000000081525060200191505060405180910390fd5b3373ffffffffffffffffffffffffffffffffffffffff168673ffffffffffffffffffffffffffffffffffffffff161480611f95575060011515600160008873ffffffffffffffffffffffffffffffffffffffff1673ffffffffffffffffffffffffffffffffffffffff16815260200190815260200160002060003373ffffffffffffffffffffffffffffffffffffffff1673ffffffffffffffffffffffffffffffffffffffff16815260200190815260200160002060009054906101000a900460ff161515145b151561202f576040517f08c379a000000000000000000000000000000000000000000000000000000000815260040180806020018281038252602f8152602001807f4e656564206f70657261746f7220617070726f76616c20666f7220337264207081526020017f61727479207472616e73666572732e000000000000000000000000000000000081525060400191505060405180910390fd5b61203884611d67565b15612101578573ffffffffffffffffffffffffffffffffffffffff166002600086815260200190815260200160002060009054906101000a900473ffffffffffffffffffffffffffffffffffffffff1673ffffffffffffffffffffffffffffffffffffffff161415156120aa57600080fd5b846002600086815260200190815260200160002060006101000a81548173ffffffffffffffffffffffffffffffffffffffff021916908373ffffffffffffffffffffffffffffffffffffffff16021790555061226c565b6121638360008087815260200190815260200160002060008973ffffffffffffffffffffffffffffffffffffffff1673ffffffffffffffffffffffffffffffffffffffff168152602001908152602001600020546125c690919063ffffffff16565b60008086815260200190815260200160002060008873ffffffffffffffffffffffffffffffffffffffff1673ffffffffffffffffffffffffffffffffffffffff168152602001908152602001600020819055506122188360008087815260200190815260200160002060008873ffffffffffffffffffffffffffffffffffffffff1673ffffffffffffffffffffffffffffffffffffffff168152602001908152602001600020546125df90919063ffffffff16565b60008086815260200190815260200160002060008773ffffffffffffffffffffffffffffffffffffffff1673ffffffffffffffffffffffffffffffffffffffff168152602001908152602001600020819055505b8473ffffffffffffffffffffffffffffffffffffffff168673ffffffffffffffffffffffffffffffffffffffff163373ffffffffffffffffffffffffffffffffffffffff167fc3d58168c5ae7397731d063d5bbf3d657854427343f4c083240f7aacaa2d0f628787604051808381526020018281526020019250505060405180910390a461230f8573ffffffffffffffffffffffffffffffffffffffff166125fb565b1561236757612366338787878787878080601f016020809104026020016040519081016040528093929190818152602001838380828437600081840152601f19601f8201169050808301925050505050505061291c565b5b505050505050565b823373ffffffffffffffffffffffffffffffffffffffff166004600083815260200190815260200160002060009054906101000a900473ffffffffffffffffffffffffffffffffffffffff1673ffffffffffffffffffffffffffffffffffffffff161415156123dd57600080fd5b6123e684611d67565b15156123f157600080fd5b6000600160056000878152602001908152602001600020540190506124356005600087815260200190815260200160002054858590506125df90919063ffffffff16565b600560008781526020019081526020016000208190555060008090505b848490508110156125be576000858583818110151561246d57fe5b9050602002013573ffffffffffffffffffffffffffffffffffffffff169050600082840188179050816002600083815260200190815260200160002060006101000a81548173ffffffffffffffffffffffffffffffffffffffff021916908373ffffffffffffffffffffffffffffffffffffffff1602179055508173ffffffffffffffffffffffffffffffffffffffff16600073ffffffffffffffffffffffffffffffffffffffff163373ffffffffffffffffffffffffffffffffffffffff167fc3d58168c5ae7397731d063d5bbf3d657854427343f4c083240f7aacaa2d0f62846001604051808381526020018281526020019250505060405180910390a461258c8273ffffffffffffffffffffffffffffffffffffffff166125fb565b156125b1576125b0333384846001602060405190810160405280600081525061291c565b5b5050806001019050612452565b505050505050565b60008282111515156125d457fe5b818303905092915050565b600081830190508281101515156125f257fe5b80905092915050565b600080823b905060008111915050919050565b63bc197c817c0100000000000000000000000000000000000000000000000000000000027bffffffffffffffffffffffffffffffffffffffffffffffffffffffff19168473ffffffffffffffffffffffffffffffffffffffff1663bc197c8188888787876040518663ffffffff167c0100000000000000000000000000000000000000000000000000000000028152600401808673ffffffffffffffffffffffffffffffffffffffff1673ffffffffffffffffffffffffffffffffffffffff1681526020018573ffffffffffffffffffffffffffffffffffffffff1673ffffffffffffffffffffffffffffffffffffffff168152602001806020018060200180602001848103845287818151815260200191508051906020019060200280838360005b8381101561274c578082015181840152602081019050612731565b50505050905001848103835286818151815260200191508051906020019060200280838360005b8381101561278e578082015181840152602081019050612773565b50505050905001848103825285818151815260200191508051906020019080838360005b838110156127cd5780820151818401526020810190506127b2565b50505050905090810190601f1680156127fa5780820380516001836020036101000a031916815260200191505b5098505050505050505050602060405180830381600087803b15801561281f57600080fd5b505af1158015612833573d6000803e3d6000fd5b505050506040513d602081101561284957600080fd5b81019080805190602001909291905050507bffffffffffffffffffffffffffffffffffffffffffffffffffffffff1916141515612914576040517f08c379a000000000000000000000000000000000000000000000000000000000815260040180806020018281038252603e8152602001807f636f6e74726163742072657475726e656420616e20756e6b6e6f776e2076616c81526020017f75652066726f6d206f6e4552433131353542617463685265636569766564000081525060400191505060405180910390fd5b505050505050565b63f23a6e617c0100000000000000000000000000000000000000000000000000000000027bffffffffffffffffffffffffffffffffffffffffffffffffffffffff19168473ffffffffffffffffffffffffffffffffffffffff1663f23a6e6188888787876040518663ffffffff167c0100000000000000000000000000000000000000000000000000000000028152600401808673ffffffffffffffffffffffffffffffffffffffff1673ffffffffffffffffffffffffffffffffffffffff1681526020018573ffffffffffffffffffffffffffffffffffffffff1673ffffffffffffffffffffffffffffffffffffffff16815260200184815260200183815260200180602001828103825283818151815260200191508051906020019080838360005b83811015612a5b578082015181840152602081019050612a40565b50505050905090810190601f168015612a885780820380516001836020036101000a031916815260200191505b509650505050505050602060405180830381600087803b158015612aab57600080fd5b505af1158015612abf573d6000803e3d6000fd5b505050506040513d6020811015612ad557600080fd5b81019080805190602001909291905050507bffffffffffffffffffffffffffffffffffffffffffffffffffffffff1916141515612ba0576040517f08c379a00000000000000000000000000000000000000000000000000000000081526004018080602001828103825260398152602001807f636f6e74726163742072657475726e656420616e20756e6b6e6f776e2076616c81526020017f75652066726f6d206f6e4552433131353552656365697665640000000000000081525060400191505060405180910390fd5b50505050505056fea165627a7a7230582033dc4d42f141aa2df57eb2af6c5690eccdde5a5c2193e419de2672a5c934534c0029",
  "source": "pragma solidity ^0.5.0;\n\nimport \"./ERC1155MixedFungible.sol\";\n\n/**\n    @dev Mintable form of ERC1155\n    Shows how easy it is to mint new items\n*/\ncontract ERC1155MixedFungibleMintable is ERC1155MixedFungible {\n\n    uint256 nonce;\n    mapping (uint256 => address) public creators;\n    mapping (uint256 => uint256) public maxIndex;\n\n    modifier creatorOnly(uint256 _id) {\n        require(creators[_id] == msg.sender);\n        _;\n    }\n\n    // This function only creates the type.\n    function create(\n        string calldata _uri,\n        bool   _isNF)\n    external returns(uint256 _type) {\n\n        // Store the type in the upper 128 bits\n        _type = (++nonce << 128);\n\n        // Set a flag if this is an NFI.\n        if (_isNF)\n          _type = _type | TYPE_NF_BIT;\n\n        // This will allow restricted access to creators.\n        creators[_type] = msg.sender;\n\n        // emit a Transfer event with Create semantic to help with discovery.\n        emit TransferSingle(msg.sender, address(0x0), address(0x0), _type, 0);\n\n        if (bytes(_uri).length > 0)\n            emit URI(_uri, _type);\n    }\n\n    function mintNonFungible(uint256 _type, address[] calldata _to) external creatorOnly(_type) {\n\n        // No need to check this is a nf type rather than an id since\n        // creatorOnly() will only let a type pass through.\n        require(isNonFungible(_type));\n\n        // Index are 1-based.\n        uint256 index = maxIndex[_type] + 1;\n        maxIndex[_type] = _to.length.add(maxIndex[_type]);\n\n        for (uint256 i = 0; i < _to.length; ++i) {\n            address dst = _to[i];\n            uint256 id  = _type | index + i;\n\n            nfOwners[id] = dst;\n\n            // You could use base-type id to store NF type balances if you wish.\n            // balances[_type][dst] = quantity.add(balances[_type][dst]);\n\n            emit TransferSingle(msg.sender, address(0x0), dst, id, 1);\n\n            if (dst.isContract()) {\n                _doSafeTransferAcceptanceCheck(msg.sender, msg.sender, dst, id, 1, '');\n            }\n        }\n    }\n\n    function mintFungible(uint256 _id, address[] calldata _to, uint256[] calldata _quantities) external creatorOnly(_id) {\n\n        require(isFungible(_id));\n\n        for (uint256 i = 0; i < _to.length; ++i) {\n\n            address to = _to[i];\n            uint256 quantity = _quantities[i];\n\n            // Grant the items to the caller\n            balances[_id][to] = quantity.add(balances[_id][to]);\n\n            // Emit the Transfer/Mint event.\n            // the 0x0 source address implies a mint\n            // It will also provide the circulating supply info.\n            emit TransferSingle(msg.sender, address(0x0), to, _id, quantity);\n\n            if (to.isContract()) {\n                _doSafeTransferAcceptanceCheck(msg.sender, msg.sender, to, _id, quantity, '');\n            }\n        }\n    }\n}\n",
  "sourcePath": "/Users/rbenheidorn/Documents/NeonDistrict/erc1155-airdropper/erc-1155/contracts/ERC1155MixedFungibleMintable.sol",
  "compiler": {
    "name": "solc",
    "version": "0.5.0+commit.1d4f565a.Emscripten.clang"
  },
  "schemaVersion": "3.0.9",
  "updatedAt": "2020-02-01T17:45:58.410Z",
  "devdoc": {
    "details": "Mintable form of ERC1155 Shows how easy it is to mint new items",
    "methods": {
      "isApprovedForAll(address,address)": {
        "params": {
          "_operator": "Address of authorized operator",
          "_owner": "The owner of the Tokens"
        },
        "return": "True if the operator is approved, false if not"
      },
      "setApprovalForAll(address,bool)": {
        "details": "MUST emit the ApprovalForAll event on success.",
        "params": {
          "_approved": "True if the operator is approved, false to revoke approval",
          "_operator": "Address to add to the set of authorized operators"
        }
      }
    }
  },
  "userdoc": {
    "methods": {
      "isApprovedForAll(address,address)": {
        "notice": "Queries the approval status of an operator for a given owner."
      },
      "setApprovalForAll(address,bool)": {
        "notice": "Enable or disable approval for a third party (\"operator\") to manage all of the caller's tokens."
      }
    }
  }
}