{
  "contractName": "ERC1155ReceiverDelegate",
  "abi": [
    {
      "constant": true,
      "inputs": [],
      "name": "shouldReject",
      "outputs": [
        {
          "name": "",
          "type": "bool"
        }
      ],
      "payable": false,
      "stateMutability": "view",
      "type": "function"
    },
    {
      "constant": true,
      "inputs": [
        {
          "name": "",
          "type": "bytes4"
        }
      ],
      "name": "delegates",
      "outputs": [
        {
          "name": "",
          "type": "address"
        }
      ],
      "payable": false,
      "stateMutability": "view",
      "type": "function"
    },
    {
      "constant": false,
      "inputs": [
        {
          "name": "_value",
          "type": "bool"
        }
      ],
      "name": "setShouldReject",
      "outputs": [],
      "payable": false,
      "stateMutability": "nonpayable",
      "type": "function"
    },
    {
      "constant": false,
      "inputs": [
        {
          "name": "_operator",
          "type": "address"
        },
        {
          "name": "_from",
          "type": "address"
        },
        {
          "name": "_id",
          "type": "uint256"
        },
        {
          "name": "_value",
          "type": "uint256"
        },
        {
          "name": "_data",
          "type": "bytes"
        }
      ],
      "name": "onERC1155Received",
      "outputs": [
        {
          "name": "",
          "type": "bytes4"
        }
      ],
      "payable": false,
      "stateMutability": "nonpayable",
      "type": "function"
    },
    {
      "constant": false,
      "inputs": [
        {
          "name": "_operator",
          "type": "address"
        },
        {
          "name": "_from",
          "type": "address"
        },
        {
          "name": "_ids",
          "type": "uint256[]"
        },
        {
          "name": "_values",
          "type": "uint256[]"
        },
        {
          "name": "_data",
          "type": "bytes"
        }
      ],
      "name": "onERC1155BatchReceived",
      "outputs": [
        {
          "name": "",
          "type": "bytes4"
        }
      ],
      "payable": false,
      "stateMutability": "nonpayable",
      "type": "function"
    },
    {
      "constant": true,
      "inputs": [
        {
          "name": "interfaceID",
          "type": "bytes4"
        }
      ],
      "name": "supportsInterface",
      "outputs": [
        {
          "name": "",
          "type": "bool"
        }
      ],
      "payable": false,
      "stateMutability": "view",
      "type": "function"
    }
  ],
  "bytecode": "0x608060405234801561001057600080fd5b50610a47806100206000396000f3fe608060405260043610610078576000357c0100000000000000000000000000000000000000000000000000000000900463ffffffff16806301ffc9a71461007d5780631dbb9381146100ef578063a0a2daf01461011e578063a175b638146101b8578063bc197c81146101f5578063f23a6e61146103b7575b600080fd5b34801561008957600080fd5b506100d5600480360360208110156100a057600080fd5b8101908080357bffffffffffffffffffffffffffffffffffffffffffffffffffffffff191690602001909291905050506104e3565b604051808215151515815260200191505060405180910390f35b3480156100fb57600080fd5b5061010461057d565b604051808215151515815260200191505060405180910390f35b34801561012a57600080fd5b506101766004803603602081101561014157600080fd5b8101908080357bffffffffffffffffffffffffffffffffffffffffffffffffffffffff19169060200190929190505050610590565b604051808273ffffffffffffffffffffffffffffffffffffffff1673ffffffffffffffffffffffffffffffffffffffff16815260200191505060405180910390f35b3480156101c457600080fd5b506101f3600480360360208110156101db57600080fd5b810190808035151590602001909291905050506105c3565b005b34801561020157600080fd5b50610363600480360360a081101561021857600080fd5b81019080803573ffffffffffffffffffffffffffffffffffffffff169060200190929190803573ffffffffffffffffffffffffffffffffffffffff1690602001909291908035906020019064010000000081111561027557600080fd5b82018360208201111561028757600080fd5b803590602001918460208302840111640100000000831117156102a957600080fd5b9091929391929390803590602001906401000000008111156102ca57600080fd5b8201836020820111156102dc57600080fd5b803590602001918460208302840111640100000000831117156102fe57600080fd5b90919293919293908035906020019064010000000081111561031f57600080fd5b82018360208201111561033157600080fd5b8035906020019184600183028401116401000000008311171561035357600080fd5b90919293919293905050506106a5565b60405180827bffffffffffffffffffffffffffffffffffffffffffffffffffffffff19167bffffffffffffffffffffffffffffffffffffffffffffffffffffffff1916815260200191505060405180910390f35b3480156103c357600080fd5b5061048f600480360360a08110156103da57600080fd5b81019080803573ffffffffffffffffffffffffffffffffffffffff169060200190929190803573ffffffffffffffffffffffffffffffffffffffff16906020019092919080359060200190929190803590602001909291908035906020019064010000000081111561044b57600080fd5b82018360208201111561045d57600080fd5b8035906020019184600183028401116401000000008311171561047f57600080fd5b9091929391929390505050610874565b60405180827bffffffffffffffffffffffffffffffffffffffffffffffffffffffff19167bffffffffffffffffffffffffffffffffffffffffffffffffffffffff1916815260200191505060405180910390f35b60006301ffc9a77c010000000000000000000000000000000000000000000000000000000002827bffffffffffffffffffffffffffffffffffffffffffffffffffffffff191614806105765750634e2312e07c010000000000000000000000000000000000000000000000000000000002827bffffffffffffffffffffffffffffffffffffffffffffffffffffffff1916145b9050919050565b600360149054906101000a900460ff1681565b60006020528060005260406000206000915054906101000a900473ffffffffffffffffffffffffffffffffffffffff1681565b600360009054906101000a900473ffffffffffffffffffffffffffffffffffffffff1673ffffffffffffffffffffffffffffffffffffffff163073ffffffffffffffffffffffffffffffffffffffff16141515610688576040517f08c379a000000000000000000000000000000000000000000000000000000000815260040180806020018281038252601c8152602001807f4469726563742063616c6c3a2073657453686f756c6452656a6563740000000081525060200191505060405180910390fd5b80600360146101000a81548160ff02191690831515021790555050565b6000600360009054906101000a900473ffffffffffffffffffffffffffffffffffffffff1673ffffffffffffffffffffffffffffffffffffffff163073ffffffffffffffffffffffffffffffffffffffff16141515610792576040517f08c379a00000000000000000000000000000000000000000000000000000000081526004018080602001828103825260238152602001807f4469726563742063616c6c3a206f6e455243313135354261746368526563656981526020017f766564000000000000000000000000000000000000000000000000000000000081525060400191505060405180910390fd5b60011515600360149054906101000a900460ff1615151415610842576040517f08c379a000000000000000000000000000000000000000000000000000000000815260040180806020018281038252602d8152602001807f6f6e45524331313535426174636852656365697665643a207472616e7366657281526020017f206e6f742061636365707465640000000000000000000000000000000000000081525060400191505060405180910390fd5b63bc197c817c010000000000000000000000000000000000000000000000000000000002905098975050505050505050565b6000600360009054906101000a900473ffffffffffffffffffffffffffffffffffffffff1673ffffffffffffffffffffffffffffffffffffffff163073ffffffffffffffffffffffffffffffffffffffff1614151561093b576040517f08c379a000000000000000000000000000000000000000000000000000000000815260040180806020018281038252601e8152602001807f4469726563742063616c6c3a206f6e455243313135355265636569766564000081525060200191505060405180910390fd5b60011515600360149054906101000a900460ff16151514156109eb576040517f08c379a00000000000000000000000000000000000000000000000000000000081526004018080602001828103825260288152602001807f6f6e4552433131353552656365697665643a207472616e73666572206e6f742081526020017f616363657074656400000000000000000000000000000000000000000000000081525060400191505060405180910390fd5b63f23a6e617c0100000000000000000000000000000000000000000000000000000000029050969550505050505056fea165627a7a723058207d6d1b9f7a6f0b73ad6c05765a7056cea7dec004adefa9f583c44adb2f4ccc270029",
  "source": "pragma solidity ^0.5.0;\n\nimport \"./DelegatesStorage.sol\";\nimport \"../../Common.sol\";\nimport \"../../IERC1155TokenReceiver.sol\";\n\n///////////////////////////////////////////////////////////////////////////////////////////////////\n/**\n * @title ERC1155ReceiverDelegate\n * @dev Contract to test safe transfer behavior via proxy and delegate.\n */\n///////////////////////////////////////////////////////////////////////////////////////////////////\n\ncontract ERC1155ReceiverDelegate is ProxyReceiverStorage_001_ERC1155MockReceiver, ERC1155TokenReceiver, CommonConstants {\n\n    function setShouldReject(bool _value) external {\n        require(address(this) == proxy, \"Direct call: setShouldReject\");\n\n        shouldReject = _value;\n    }\n\n    function onERC1155Received(address _operator, address _from, uint256 _id, uint256 _value, bytes calldata _data) external returns(bytes4) {\n        (_operator); (_from); (_id); (_value); (_data);  // solidity, be quiet please\n\n        require(address(this) == proxy, \"Direct call: onERC1155Received\");\n\n        if (shouldReject == true) {\n            revert(\"onERC1155Received: transfer not accepted\");\n        } else {\n            return ERC1155_ACCEPTED;\n        }\n    }\n\n    function onERC1155BatchReceived(address _operator, address _from, uint256[] calldata _ids, uint256[] calldata _values, bytes calldata _data) external returns(bytes4) {\n        (_operator); (_from); (_ids); (_values); (_data); // solidity, be quiet please\n\n        require(address(this) == proxy, \"Direct call: onERC1155BatchReceived\");\n\n        if (shouldReject == true) {\n            revert(\"onERC1155BatchReceived: transfer not accepted\");\n        } else {\n            return ERC1155_BATCH_ACCEPTED;\n        }\n    }\n\n    // ERC165 interface support\n    function supportsInterface(bytes4 interfaceID) external view returns (bool) {\n        return  interfaceID == 0x01ffc9a7 ||    // ERC165\n                interfaceID == 0x4e2312e0;      // ERC1155_ACCEPTED ^ ERC1155_BATCH_ACCEPTED;\n    }\n}\n",
  "sourcePath": "/Users/rbenheidorn/Documents/NeonDistrict/erc1155-airdropper/erc-1155/contracts/ProxyReceiver/Delegates/ERC1155ReceiverDelegate.sol",
  "compiler": {
    "name": "solc",
    "version": "0.5.0+commit.1d4f565a.Emscripten.clang"
  },
  "schemaVersion": "3.0.9",
  "updatedAt": "2020-02-01T17:45:58.424Z",
  "devdoc": {
    "methods": {}
  },
  "userdoc": {
    "methods": {},
    "notice": "////////////////////////////////////////////////////////////////////////////////////////////////"
  }
}