{
  "contractName": "ERCXXXXReceiverDelegate",
  "abi": [
    {
      "constant": true,
      "inputs": [],
      "name": "shouldReject",
      "outputs": [
        {
          "name": "",
          "type": "bool"
        }
      ],
      "payable": false,
      "stateMutability": "view",
      "type": "function"
    },
    {
      "constant": true,
      "inputs": [],
      "name": "shouldRejectXXXX",
      "outputs": [
        {
          "name": "",
          "type": "bool"
        }
      ],
      "payable": false,
      "stateMutability": "view",
      "type": "function"
    },
    {
      "constant": true,
      "inputs": [
        {
          "name": "",
          "type": "bytes4"
        }
      ],
      "name": "delegates",
      "outputs": [
        {
          "name": "",
          "type": "address"
        }
      ],
      "payable": false,
      "stateMutability": "view",
      "type": "function"
    },
    {
      "constant": true,
      "inputs": [],
      "name": "NOT_ERCXXXX_RECEIVED",
      "outputs": [
        {
          "name": "",
          "type": "bytes4"
        }
      ],
      "payable": false,
      "stateMutability": "view",
      "type": "function"
    },
    {
      "constant": true,
      "inputs": [],
      "name": "ERCXXXX_RECEIVED",
      "outputs": [
        {
          "name": "",
          "type": "bytes4"
        }
      ],
      "payable": false,
      "stateMutability": "view",
      "type": "function"
    },
    {
      "constant": true,
      "inputs": [],
      "name": "ERCXXXX_BATCH_RECEIVED",
      "outputs": [
        {
          "name": "",
          "type": "bytes4"
        }
      ],
      "payable": false,
      "stateMutability": "view",
      "type": "function"
    },
    {
      "constant": false,
      "inputs": [
        {
          "name": "_value",
          "type": "bool"
        }
      ],
      "name": "setShouldRejectClash",
      "outputs": [],
      "payable": false,
      "stateMutability": "nonpayable",
      "type": "function"
    },
    {
      "constant": false,
      "inputs": [
        {
          "name": "_value",
          "type": "bool"
        }
      ],
      "name": "setShouldRejectXXXX",
      "outputs": [],
      "payable": false,
      "stateMutability": "nonpayable",
      "type": "function"
    },
    {
      "constant": true,
      "inputs": [
        {
          "name": "_operator",
          "type": "address"
        },
        {
          "name": "_from",
          "type": "address"
        },
        {
          "name": "_id",
          "type": "uint256"
        },
        {
          "name": "_value",
          "type": "uint256"
        },
        {
          "name": "_data",
          "type": "bytes"
        }
      ],
      "name": "onERCXXXXReceived",
      "outputs": [
        {
          "name": "",
          "type": "bytes4"
        }
      ],
      "payable": false,
      "stateMutability": "view",
      "type": "function"
    },
    {
      "constant": true,
      "inputs": [
        {
          "name": "_operator",
          "type": "address"
        },
        {
          "name": "_from",
          "type": "address"
        },
        {
          "name": "_ids",
          "type": "uint256[]"
        },
        {
          "name": "_values",
          "type": "uint256[]"
        },
        {
          "name": "_data",
          "type": "bytes"
        }
      ],
      "name": "onERCXXXXBatchReceived",
      "outputs": [
        {
          "name": "",
          "type": "bytes4"
        }
      ],
      "payable": false,
      "stateMutability": "view",
      "type": "function"
    }
  ],
  "bytecode": "0x608060405234801561001057600080fd5b50610bce806100206000396000f3fe6080604052600436106100a4576000357c0100000000000000000000000000000000000000000000000000000000900463ffffffff1680631dbb9381146100a95780632090dd24146100d857806380f5fe741461011557806391ad57bd14610152578063a0a2daf014610181578063b689697f1461021b578063b766c37914610284578063e9e5be6a146102ed578063eb510be8146104af578063ffbd487d146105db575b600080fd5b3480156100b557600080fd5b506100be610644565b604051808215151515815260200191505060405180910390f35b3480156100e457600080fd5b50610113600480360360208110156100fb57600080fd5b81019080803515159060200190929190505050610657565b005b34801561012157600080fd5b506101506004803603602081101561013857600080fd5b8101908080351515906020019092919050505061075f565b005b34801561015e57600080fd5b50610167610841565b604051808215151515815260200191505060405180910390f35b34801561018d57600080fd5b506101d9600480360360208110156101a457600080fd5b8101908080357bffffffffffffffffffffffffffffffffffffffffffffffffffffffff19169060200190929190505050610854565b604051808273ffffffffffffffffffffffffffffffffffffffff1673ffffffffffffffffffffffffffffffffffffffff16815260200191505060405180910390f35b34801561022757600080fd5b50610230610887565b60405180827bffffffffffffffffffffffffffffffffffffffffffffffffffffffff19167bffffffffffffffffffffffffffffffffffffffffffffffffffffffff1916815260200191505060405180910390f35b34801561029057600080fd5b506102996108ae565b60405180827bffffffffffffffffffffffffffffffffffffffffffffffffffffffff19167bffffffffffffffffffffffffffffffffffffffffffffffffffffffff1916815260200191505060405180910390f35b3480156102f957600080fd5b5061045b600480360360a081101561031057600080fd5b81019080803573ffffffffffffffffffffffffffffffffffffffff169060200190929190803573ffffffffffffffffffffffffffffffffffffffff1690602001909291908035906020019064010000000081111561036d57600080fd5b82018360208201111561037f57600080fd5b803590602001918460208302840111640100000000831117156103a157600080fd5b9091929391929390803590602001906401000000008111156103c257600080fd5b8201836020820111156103d457600080fd5b803590602001918460208302840111640100000000831117156103f657600080fd5b90919293919293908035906020019064010000000081111561041757600080fd5b82018360208201111561042957600080fd5b8035906020019184600183028401116401000000008311171561044b57600080fd5b90919293919293905050506108d5565b60405180827bffffffffffffffffffffffffffffffffffffffffffffffffffffffff19167bffffffffffffffffffffffffffffffffffffffffffffffffffffffff1916815260200191505060405180910390f35b3480156104bb57600080fd5b50610587600480360360a08110156104d257600080fd5b81019080803573ffffffffffffffffffffffffffffffffffffffff169060200190929190803573ffffffffffffffffffffffffffffffffffffffff16906020019092919080359060200190929190803590602001909291908035906020019064010000000081111561054357600080fd5b82018360208201111561055557600080fd5b8035906020019184600183028401116401000000008311171561057757600080fd5b9091929391929390505050610a3c565b60405180827bffffffffffffffffffffffffffffffffffffffffffffffffffffffff19167bffffffffffffffffffffffffffffffffffffffffffffffffffffffff1916815260200191505060405180910390f35b3480156105e757600080fd5b506105f0610b7b565b60405180827bffffffffffffffffffffffffffffffffffffffffffffffffffffffff19167bffffffffffffffffffffffffffffffffffffffffffffffffffffffff1916815260200191505060405180910390f35b600360149054906101000a900460ff1681565b600360009054906101000a900473ffffffffffffffffffffffffffffffffffffffff1673ffffffffffffffffffffffffffffffffffffffff163073ffffffffffffffffffffffffffffffffffffffff16141515610742576040517f08c379a00000000000000000000000000000000000000000000000000000000081526004018080602001828103825260218152602001807f4469726563742063616c6c3a2073657453686f756c6452656a656374436c617381526020017f680000000000000000000000000000000000000000000000000000000000000081525060400191505060405180910390fd5b80600360146101000a81548160ff02191690831515021790555050565b600360009054906101000a900473ffffffffffffffffffffffffffffffffffffffff1673ffffffffffffffffffffffffffffffffffffffff163073ffffffffffffffffffffffffffffffffffffffff16141515610824576040517f08c379a00000000000000000000000000000000000000000000000000000000081526004018080602001828103825260208152602001807f4469726563742063616c6c3a2073657453686f756c6452656a6563745858585881525060200191505060405180910390fd5b80600360156101000a81548160ff02191690831515021790555050565b600360159054906101000a900460ff1681565b60006020528060005260406000206000915054906101000a900473ffffffffffffffffffffffffffffffffffffffff1681565b63deadf00d7c01000000000000000000000000000000000000000000000000000000000281565b631234aaaa7c01000000000000000000000000000000000000000000000000000000000281565b6000600360009054906101000a900473ffffffffffffffffffffffffffffffffffffffff1673ffffffffffffffffffffffffffffffffffffffff163073ffffffffffffffffffffffffffffffffffffffff161415156109c2576040517f08c379a00000000000000000000000000000000000000000000000000000000081526004018080602001828103825260238152602001807f4469726563742063616c6c3a206f6e455243585858584261746368526563656981526020017f766564000000000000000000000000000000000000000000000000000000000081525060400191505060405180910390fd5b60011515600360159054906101000a900460ff1615151415610a095763deadf00d7c0100000000000000000000000000000000000000000000000000000000029050610a30565b634321bbbb7c01000000000000000000000000000000000000000000000000000000000290505b98975050505050505050565b6000600360009054906101000a900473ffffffffffffffffffffffffffffffffffffffff1673ffffffffffffffffffffffffffffffffffffffff163073ffffffffffffffffffffffffffffffffffffffff16141515610b03576040517f08c379a000000000000000000000000000000000000000000000000000000000815260040180806020018281038252601e8152602001807f4469726563742063616c6c3a206f6e455243585858585265636569766564000081525060200191505060405180910390fd5b60011515600360159054906101000a900460ff1615151415610b4a5763deadf00d7c0100000000000000000000000000000000000000000000000000000000029050610b71565b631234aaaa7c01000000000000000000000000000000000000000000000000000000000290505b9695505050505050565b634321bbbb7c0100000000000000000000000000000000000000000000000000000000028156fea165627a7a72305820016a7a969c3716628dd1102cb1ac184e20801ce429400837e7b4d476a74cc20b0029",
  "source": "pragma solidity ^0.5.0;\n\nimport \"./DelegatesStorage.sol\";\n\n///////////////////////////////////////////////////////////////////////////////////////////////////\n/**\n * @title ERCXXXXReceiverDelegate\n * @dev Contract to test safe transfer behavior via proxy with future standard delegate.\n */\n///////////////////////////////////////////////////////////////////////////////////////////////////\n\ncontract ERCXXXXReceiverDelegate is ProxyReceiverStorage_002_ERCXXXXFuture {\n\n    bytes4 constant public ERCXXXX_RECEIVED = 0x1234AAAA;\n    bytes4 constant public ERCXXXX_BATCH_RECEIVED = 0x4321BBBB;\n    bytes4 constant public NOT_ERCXXXX_RECEIVED = 0xDEADF00D; // Some random value\n\n    function setShouldRejectClash(bool _value) external {\n        require(address(this) == proxy, \"Direct call: setShouldRejectClash\");\n\n        shouldReject = _value;\n    }\n\n    function setShouldRejectXXXX(bool _value) external {\n        require(address(this) == proxy, \"Direct call: setShouldRejectXXXX\");\n\n        shouldRejectXXXX = _value;\n    }\n\n    function onERCXXXXReceived(address _operator, address _from, uint256 _id, uint256 _value, bytes calldata _data) external view returns(bytes4) {\n        (_operator); (_from); (_id); (_value); (_data);  // solidity, be quiet please\n\n        require(address(this) == proxy, \"Direct call: onERCXXXXReceived\");\n\n        if (shouldRejectXXXX == true) {\n            return NOT_ERCXXXX_RECEIVED;\n        } else {\n            return ERCXXXX_RECEIVED;\n        }\n    }\n\n    function onERCXXXXBatchReceived(address _operator, address _from, uint256[] calldata _ids, uint256[] calldata _values, bytes calldata _data) external view returns(bytes4) {\n        (_operator); (_from); (_ids); (_values); (_data);  // solidity, be quiet please\n\n        require(address(this) == proxy, \"Direct call: onERCXXXXBatchReceived\");\n\n        if (shouldRejectXXXX == true) {\n            return NOT_ERCXXXX_RECEIVED;\n        } else {\n            return ERCXXXX_BATCH_RECEIVED;\n        }\n    }\n}\n",
  "sourcePath": "/Users/rbenheidorn/Documents/NeonDistrict/erc1155-airdropper/erc-1155/contracts/ProxyReceiver/Delegates/ERCXXXXReceiverDelegate.sol",
  "compiler": {
    "name": "solc",
    "version": "0.5.0+commit.1d4f565a.Emscripten.clang"
  },
  "schemaVersion": "3.0.9",
  "updatedAt": "2020-02-01T17:45:58.426Z",
  "devdoc": {
    "methods": {}
  },
  "userdoc": {
    "methods": {},
    "notice": "////////////////////////////////////////////////////////////////////////////////////////////////"
  }
}