{
  "contractName": "ProxyBaseStorage",
  "abi": [
    {
      "constant": true,
      "inputs": [
        {
          "name": "",
          "type": "bytes4"
        }
      ],
      "name": "delegates",
      "outputs": [
        {
          "name": "",
          "type": "address"
        }
      ],
      "payable": false,
      "stateMutability": "view",
      "type": "function"
    }
  ],
  "bytecode": "0x608060405234801561001057600080fd5b5061013f806100206000396000f3fe608060405260043610610041576000357c0100000000000000000000000000000000000000000000000000000000900463ffffffff168063a0a2daf014610046575b600080fd5b34801561005257600080fd5b5061009e6004803603602081101561006957600080fd5b8101908080357bffffffffffffffffffffffffffffffffffffffffffffffffffffffff191690602001909291905050506100e0565b604051808273ffffffffffffffffffffffffffffffffffffffff1673ffffffffffffffffffffffffffffffffffffffff16815260200191505060405180910390f35b60006020528060005260406000206000915054906101000a900473ffffffffffffffffffffffffffffffffffffffff168156fea165627a7a72305820644c5b5c878316363cf85f5c653adcb16ed643ad080514f81b7dfecad90380800029",
  "source": "pragma solidity ^0.5.0;\n\n///////////////////////////////////////////////////////////////////////////////////////////////////\n/**\n * @title ProxyBaseStorage\n * @dev Defining base storage for the proxy contract.\n */\n///////////////////////////////////////////////////////////////////////////////////////////////////\n\ncontract ProxyBaseStorage {\n\n    //////////////////////////////////////////// VARS /////////////////////////////////////////////\n\n    // maps functions to the delegate contracts that execute the functions.\n    // funcId => delegate contract\n    mapping(bytes4 => address) public delegates;\n\n    // array of function signatures supported by the contract.\n    bytes[] internal funcSignatures;\n\n    // maps each function signature to its position in the funcSignatures array.\n    // signature => index+1\n    mapping(bytes => uint256) internal funcSignatureToIndex;\n\n    // proxy address of itself, can be used for cross-delegate calls but also safety checking.\n    address proxy;\n\n    ///////////////////////////////////////////////////////////////////////////////////////////////\n\n}\n",
  "sourcePath": "/Users/rbenheidorn/Documents/NeonDistrict/erc1155-airdropper/erc-1155/contracts/ProxyReceiver/ProxyBaseStorage.sol",
  "compiler": {
    "name": "solc",
    "version": "0.5.0+commit.1d4f565a.Emscripten.clang"
  },
  "schemaVersion": "3.0.9",
  "updatedAt": "2020-02-01T17:45:58.428Z",
  "devdoc": {
    "methods": {}
  },
  "userdoc": {
    "methods": {},
    "notice": "////////////////////////////////////////////////////////////////////////////////////////////////"
  }
}