{
  "contractName": "ProxyReceiver",
  "abi": [
    {
      "constant": true,
      "inputs": [
        {
          "name": "",
          "type": "bytes4"
        }
      ],
      "name": "delegates",
      "outputs": [
        {
          "name": "",
          "type": "address"
        }
      ],
      "payable": false,
      "stateMutability": "view",
      "type": "function"
    },
    {
      "inputs": [],
      "payable": false,
      "stateMutability": "nonpayable",
      "type": "constructor"
    },
    {
      "payable": true,
      "stateMutability": "payable",
      "type": "fallback"
    },
    {
      "anonymous": false,
      "inputs": [
        {
          "indexed": false,
          "name": "message",
          "type": "string"
        }
      ],
      "name": "CommitMessage",
      "type": "event"
    },
    {
      "anonymous": false,
      "inputs": [
        {
          "indexed": true,
          "name": "functionId",
          "type": "bytes4"
        },
        {
          "indexed": true,
          "name": "oldDelegate",
          "type": "address"
        },
        {
          "indexed": true,
          "name": "newDelegate",
          "type": "address"
        },
        {
          "indexed": false,
          "name": "functionSignature",
          "type": "string"
        }
      ],
      "name": "FunctionUpdate",
      "type": "event"
    },
    {
      "constant": false,
      "inputs": [
        {
          "name": "_delegate",
          "type": "address"
        },
        {
          "name": "_functionSignatures",
          "type": "string"
        },
        {
          "name": "_commitMessage",
          "type": "string"
        }
      ],
      "name": "updateContract",
      "outputs": [],
      "payable": false,
      "stateMutability": "nonpayable",
      "type": "function"
    }
  ],
  "bytecode": "0x60806040523480156200001157600080fd5b5030600360006101000a81548173ffffffffffffffffffffffffffffffffffffffff021916908373ffffffffffffffffffffffffffffffffffffffff16021790555060608060405190810160405280602581526020017f757064617465436f6e747261637428616464726573732c737472696e672c737481526020017f72696e67290000000000000000000000000000000000000000000000000000008152509050600081805190602001209050600360009054906101000a900473ffffffffffffffffffffffffffffffffffffffff16600080837bffffffffffffffffffffffffffffffffffffffffffffffffffffffff19167bffffffffffffffffffffffffffffffffffffffffffffffffffffffff1916815260200190815260200160002060006101000a81548173ffffffffffffffffffffffffffffffffffffffff021916908373ffffffffffffffffffffffffffffffffffffffff1602179055506001829080600181540180825580915050906001820390600052602060002001600090919290919091509080519060200190620001af929190620003ce565b50506001805490506002836040518082805190602001908083835b602083101515620001f15780518252602082019150602081019050602083039250620001ca565b6001836020036101000a038019825116818451168082178552505050505050905001915050908152602001604051809103902081905550600360009054906101000a900473ffffffffffffffffffffffffffffffffffffffff1673ffffffffffffffffffffffffffffffffffffffff16600073ffffffffffffffffffffffffffffffffffffffff16827bffffffffffffffffffffffffffffffffffffffffffffffffffffffff19167f3234040ce3bd4564874e44810f198910133a1b24c4e84aac87edbf6b458f5353856040518080602001828103825283818151815260200191508051906020019080838360005b83811015620002fd578082015181840152602081019050620002e0565b50505050905090810190601f1680156200032b5780820380516001836020036101000a031916815260200191505b509250505060405180910390a47faa1c0a0a78cec2470f9652e5d29540752e7a64d70f926933cebf13afaeda45de60405180806020018281038252603a8152602001807f4164646564204552433135333820757064617465436f6e74726163742066756e81526020017f6374696f6e20617420636f6e7472616374206372656174696f6e00000000000081525060400191505060405180910390a150506200047d565b828054600181600116156101000203166002900490600052602060002090601f016020900481019282601f106200041157805160ff191683800117855562000442565b8280016001018555821562000442579182015b828111156200044157825182559160200191906001019062000424565b5b50905062000451919062000455565b5090565b6200047a91905b80821115620004765760008160009055506001016200045c565b5090565b90565b61114e806200048d6000396000f3fe60806040526004361061004c576000357c0100000000000000000000000000000000000000000000000000000000900463ffffffff16806361455567146101b0578063a0a2daf0146102ab575b600080600080357fffffffff00000000000000000000000000000000000000000000000000000000167bffffffffffffffffffffffffffffffffffffffffffffffffffffffff19167bffffffffffffffffffffffffffffffffffffffffffffffffffffffff1916815260200190815260200160002060009054906101000a900473ffffffffffffffffffffffffffffffffffffffff169050600073ffffffffffffffffffffffffffffffffffffffff168173ffffffffffffffffffffffffffffffffffffffff1614151515610189576040517f08c379a00000000000000000000000000000000000000000000000000000000081526004018080602001828103825260188152602001807f46756e6374696f6e20646f6573206e6f742065786973742e000000000000000081525060200191505060405180910390fd5b60405136600082376000803683855af43d806000843e81600081146101ac578184f35b8184fd5b3480156101bc57600080fd5b506102a9600480360360608110156101d357600080fd5b81019080803573ffffffffffffffffffffffffffffffffffffffff1690602001909291908035906020019064010000000081111561021057600080fd5b82018360208201111561022257600080fd5b8035906020019184600183028401116401000000008311171561024457600080fd5b90919293919293908035906020019064010000000081111561026557600080fd5b82018360208201111561027757600080fd5b8035906020019184600183028401116401000000008311171561029957600080fd5b9091929391929390505050610345565b005b3480156102b757600080fd5b50610303600480360360208110156102ce57600080fd5b8101908080357bffffffffffffffffffffffffffffffffffffffffffffffffffffffff19169060200190929190505050610f23565b604051808273ffffffffffffffffffffffffffffffffffffffff1673ffffffffffffffffffffffffffffffffffffffff16815260200191505060405180910390f35b60008073ffffffffffffffffffffffffffffffffffffffff168673ffffffffffffffffffffffffffffffffffffffff1614151561041f57853b905060008111151561041e576040517f08c379a00000000000000000000000000000000000000000000000000000000081526004018080602001828103825260398152602001807f5f64656c65676174652061646472657373206973206e6f74206120636f6e747281526020017f61637420616e64206973206e6f7420616464726573732830290000000000000081525060400191505060405180910390fd5b5b606085858080601f016020809104026020016040519081016040528093929190818152602001838380828437600081840152601f19601f8201169050808301925050505050505090506000806020830193508390508251840191506000806000806000805b878a1015610eaf57895160001a92506029831415610ea25789806001019a5050868a03935089965083895288805190602001209550600080877bffffffffffffffffffffffffffffffffffffffffffffffffffffffff19167bffffffffffffffffffffffffffffffffffffffffffffffffffffffff1916815260200190815260200160002060009054906101000a900473ffffffffffffffffffffffffffffffffffffffff169450600073ffffffffffffffffffffffffffffffffffffffff168f73ffffffffffffffffffffffffffffffffffffffff161415610930576002896040518082805190602001908083835b6020831015156105995780518252602082019150602081019050602083039250610574565b6001836020036101000a038019825116818451168082178552505050505050905001915050908152602001604051809103902054915060008214151515610648576040517f08c379a00000000000000000000000000000000000000000000000000000000081526004018080602001828103825260188152602001807f46756e6374696f6e20646f6573206e6f742065786973742e000000000000000081525060200191505060405180910390fd5b8180600190039250506001808054905003905080821415156107485760018181548110151561067357fe5b9060005260206000200160018381548110151561068c57fe5b9060005260206000200190805460018160011615610100020316600290046106b5929190610f56565b506001820160026001838154811015156106cb57fe5b9060005260206000200160405180828054600181600116156101000203166002900480156107305780601f1061070e576101008083540402835291820191610730565b820191906000526020600020905b81548152906001019060200180831161071c575b50509150509081526020016040518091039020819055505b600180548091906001900361075d9190610fdd565b506002896040518082805190602001908083835b6020831015156107965780518252602082019150602081019050602083039250610771565b6001836020036101000a038019825116818451168082178552505050505050905001915050908152602001604051809103902060009055600080877bffffffffffffffffffffffffffffffffffffffffffffffffffffffff19167bffffffffffffffffffffffffffffffffffffffffffffffffffffffff1916815260200190815260200160002060006101000a81549073ffffffffffffffffffffffffffffffffffffffff0219169055600073ffffffffffffffffffffffffffffffffffffffff168573ffffffffffffffffffffffffffffffffffffffff16877bffffffffffffffffffffffffffffffffffffffffffffffffffffffff19167f3234040ce3bd4564874e44810f198910133a1b24c4e84aac87edbf6b458f53538c6040518080602001828103825283818151815260200191508051906020019080838360005b838110156108f15780820151818401526020810190506108d6565b50505050905090810190601f16801561091e5780820380516001836020036101000a031916815260200191505b509250505060405180910390a4610e9c565b600060028a6040518082805190602001908083835b60208310151561096a5780518252602082019150602081019050602083039250610945565b6001836020036101000a0380198251168184511680821785525050505050509050019150509081526020016040518091039020541415610c7b57600073ffffffffffffffffffffffffffffffffffffffff168573ffffffffffffffffffffffffffffffffffffffff16141515610a48576040517f08c379a000000000000000000000000000000000000000000000000000000000815260040180806020018281038252600d8152602001807f46756e63496420636c6173682e0000000000000000000000000000000000000081525060200191505060405180910390fd5b8e600080887bffffffffffffffffffffffffffffffffffffffffffffffffffffffff19167bffffffffffffffffffffffffffffffffffffffffffffffffffffffff1916815260200190815260200160002060006101000a81548173ffffffffffffffffffffffffffffffffffffffff021916908373ffffffffffffffffffffffffffffffffffffffff1602179055506001899080600181540180825580915050906001820390600052602060002001600090919290919091509080519060200190610b14929190611009565b505060018054905060028a6040518082805190602001908083835b602083101515610b545780518252602082019150602081019050602083039250610b2f565b6001836020036101000a0380198251168184511680821785525050505050509050019150509081526020016040518091039020819055508e73ffffffffffffffffffffffffffffffffffffffff16600073ffffffffffffffffffffffffffffffffffffffff16877bffffffffffffffffffffffffffffffffffffffffffffffffffffffff19167f3234040ce3bd4564874e44810f198910133a1b24c4e84aac87edbf6b458f53538c6040518080602001828103825283818151815260200191508051906020019080838360005b83811015610c3c578082015181840152602081019050610c21565b50505050905090810190601f168015610c695780820380516001836020036101000a031916815260200191505b509250505060405180910390a4610e9b565b8e73ffffffffffffffffffffffffffffffffffffffff16600080887bffffffffffffffffffffffffffffffffffffffffffffffffffffffff19167bffffffffffffffffffffffffffffffffffffffffffffffffffffffff1916815260200190815260200160002060009054906101000a900473ffffffffffffffffffffffffffffffffffffffff1673ffffffffffffffffffffffffffffffffffffffff16141515610e9a578e600080887bffffffffffffffffffffffffffffffffffffffffffffffffffffffff19167bffffffffffffffffffffffffffffffffffffffffffffffffffffffff1916815260200190815260200160002060006101000a81548173ffffffffffffffffffffffffffffffffffffffff021916908373ffffffffffffffffffffffffffffffffffffffff1602179055508e73ffffffffffffffffffffffffffffffffffffffff168573ffffffffffffffffffffffffffffffffffffffff16877bffffffffffffffffffffffffffffffffffffffffffffffffffffffff19167f3234040ce3bd4564874e44810f198910133a1b24c4e84aac87edbf6b458f53538c6040518080602001828103825283818151815260200191508051906020019080838360005b83811015610e5f578082015181840152602081019050610e44565b50505050905090810190601f168015610e8c5780820380516001836020036101000a031916815260200191505b509250505060405180910390a45b5b5b83890198505b89806001019a5050610484565b7faa1c0a0a78cec2470f9652e5d29540752e7a64d70f926933cebf13afaeda45de8c8c60405180806020018281038252848482818152602001925080828437600081840152601f19601f820116905080830192505050935050505060405180910390a1505050505050505050505050505050565b60006020528060005260406000206000915054906101000a900473ffffffffffffffffffffffffffffffffffffffff1681565b828054600181600116156101000203166002900490600052602060002090601f016020900481019282601f10610f8f5780548555610fcc565b82800160010185558215610fcc57600052602060002091601f016020900482015b82811115610fcb578254825591600101919060010190610fb0565b5b509050610fd99190611089565b5090565b8154818355818111156110045781836000526020600020918201910161100391906110ae565b5b505050565b828054600181600116156101000203166002900490600052602060002090601f016020900481019282601f1061104a57805160ff1916838001178555611078565b82800160010185558215611078579182015b8281111561107757825182559160200191906001019061105c565b5b5090506110859190611089565b5090565b6110ab91905b808211156110a757600081600090555060010161108f565b5090565b90565b6110d791905b808211156110d357600081816110ca91906110da565b506001016110b4565b5090565b90565b50805460018160011615610100020316600290046000825580601f10611100575061111f565b601f01602090049060005260206000209081019061111e9190611089565b5b5056fea165627a7a7230582051310d0644c0e783c2a1d4e0183ef5fc85353eac850be43eb8faa567836136ea0029",
  "source": "pragma solidity ^0.5.0;\n\nimport \"./IERC1538.sol\";\nimport \"./ProxyBaseStorage.sol\";\n\n///////////////////////////////////////////////////////////////////////////////////////////////////\n/**\n * @title ProxyReceiver Contract\n * @dev Handles forwarding calls to receiver delegates while offering transparency of updates.\n *      Follows ERC-1538 standard.\n *\n *    NOTE: Not recommended for direct use in a production contract, as no security control.\n *          Provided as simple example only.\n */\n///////////////////////////////////////////////////////////////////////////////////////////////////\n\ncontract ProxyReceiver is ProxyBaseStorage, IERC1538 {\n\n    /////////////////////////////////////////// VARIABLES /////////////////////////////////////////\n\n    ////////////////////////////////////////// MODIFIERS //////////////////////////////////////////\n\n    /////////////////////////////////////////// EVENTS ////////////////////////////////////////////\n\n    ///////////////////////////////////////// CONSTANTS ///////////////////////////////////////////\n\n    ///////////////////////////////////////////////////////////////////////////////////////////////\n\n    constructor() public {\n\n        proxy = address(this);\n\n        //Adding ERC1538 updateContract function\n        bytes memory signature = \"updateContract(address,string,string)\";\n        bytes4 funcId = bytes4(keccak256(signature));\n        delegates[funcId] = proxy;\n        funcSignatures.push(signature);\n        funcSignatureToIndex[signature] = funcSignatures.length;\n        emit FunctionUpdate(funcId, address(0), proxy, string(signature));\n        emit CommitMessage(\"Added ERC1538 updateContract function at contract creation\");\n    }\n\n    ///////////////////////////////////////////////////////////////////////////////////////////////\n\n    function() external payable {\n        address delegate = delegates[msg.sig];\n        require(delegate != address(0), \"Function does not exist.\");\n        assembly {\n            let ptr := mload(0x40)\n            calldatacopy(ptr, 0, calldatasize)\n            let result := delegatecall(gas, delegate, ptr, calldatasize, 0, 0)\n            let size := returndatasize\n            returndatacopy(ptr, 0, size)\n            switch result\n            case 0 {revert(ptr, size)}\n            default {return (ptr, size)}\n        }\n    }\n\n    ///////////////////////////////////////////////////////////////////////////////////////////////\n\n    /// @notice Updates functions in a transparent contract.\n    /// @dev If the value of _delegate is zero then the functions specified\n    ///  in _functionSignatures are removed.\n    ///  If the value of _delegate is a delegate contract address then the functions\n    ///  specified in _functionSignatures will be delegated to that address.\n    /// @param _delegate The address of a delegate contract to delegate to or zero\n    /// @param _functionSignatures A list of function signatures listed one after the other\n    /// @param _commitMessage A short description of the change and why it is made\n    ///        This message is passed to the CommitMessage event.\n    function updateContract(address _delegate, string calldata _functionSignatures, string calldata _commitMessage) external {\n\n        // ***\n        // NEEDS SECURITY ADDING HERE, SUGGEST MULTI-ADDRESS APPROVAL SYSTEM OR EQUIVALENT.\n        // ***\n\n        // pos is first used to check the size of the delegate contract.\n        // After that pos is the current memory location of _functionSignatures.\n        // It is used to move through the characters of _functionSignatures\n        uint256 pos;\n        if(_delegate != address(0)) {\n            assembly {\n                pos := extcodesize(_delegate)\n            }\n            require(pos > 0, \"_delegate address is not a contract and is not address(0)\");\n        }\n\n        // creates a bytes version of _functionSignatures\n        bytes memory signatures = bytes(_functionSignatures);\n        // stores the position in memory where _functionSignatures ends.\n        uint256 signaturesEnd;\n        // stores the starting position of a function signature in _functionSignatures\n        uint256 start;\n        assembly {\n            pos := add(signatures,32)\n            start := pos\n            signaturesEnd := add(pos,mload(signatures))\n        }\n        // the function id of the current function signature\n        bytes4 funcId;\n        // the delegate address that is being replaced or address(0) if removing functions\n        address oldDelegate;\n        // the length of the current function signature in _functionSignatures\n        uint256 num;\n        // the current character in _functionSignatures\n        uint256 char;\n        // the position of the current function signature in the funcSignatures array\n        uint256 index;\n        // the last position in the funcSignatures array\n        uint256 lastIndex;\n        // parse the _functionSignatures string and handle each function\n        for (; pos < signaturesEnd; pos++) {\n            assembly {char := byte(0,mload(pos))}\n            // 0x29 == )\n            if (char == 0x29) {\n                pos++;\n                num = (pos - start);\n                start = pos;\n                assembly {\n                    mstore(signatures,num)\n                }\n                funcId = bytes4(keccak256(signatures));\n                oldDelegate = delegates[funcId];\n                if(_delegate == address(0)) {\n                    index = funcSignatureToIndex[signatures];\n                    require(index != 0, \"Function does not exist.\");\n                    index--;\n                    lastIndex = funcSignatures.length - 1;\n                    if (index != lastIndex) {\n                        funcSignatures[index] = funcSignatures[lastIndex];\n                        funcSignatureToIndex[funcSignatures[lastIndex]] = index + 1;\n                    }\n                    funcSignatures.length--;\n                    delete funcSignatureToIndex[signatures];\n                    delete delegates[funcId];\n                    emit FunctionUpdate(funcId, oldDelegate, address(0), string(signatures));\n                }\n                else if (funcSignatureToIndex[signatures] == 0) {\n                    require(oldDelegate == address(0), \"FuncId clash.\");\n                    delegates[funcId] = _delegate;\n                    funcSignatures.push(signatures);\n                    funcSignatureToIndex[signatures] = funcSignatures.length;\n                    emit FunctionUpdate(funcId, address(0), _delegate, string(signatures));\n                }\n                else if (delegates[funcId] != _delegate) {\n                    delegates[funcId] = _delegate;\n                    emit FunctionUpdate(funcId, oldDelegate, _delegate, string(signatures));\n\n                }\n                assembly {signatures := add(signatures,num)}\n            }\n        }\n        emit CommitMessage(_commitMessage);\n    }\n\n    ///////////////////////////////////////////////////////////////////////////////////////////////\n\n}\n\n///////////////////////////////////////////////////////////////////////////////////////////////////\n",
  "sourcePath": "/Users/rbenheidorn/Documents/NeonDistrict/erc1155-airdropper/erc-1155/contracts/ProxyReceiver/ProxyReceiver.sol",
  "compiler": {
    "name": "solc",
    "version": "0.5.0+commit.1d4f565a.Emscripten.clang"
  },
  "schemaVersion": "3.0.9",
  "updatedAt": "2020-02-01T17:45:58.429Z",
  "devdoc": {
    "methods": {
      "updateContract(address,string,string)": {
        "details": "If the value of _delegate is zero then the functions specified  in _functionSignatures are removed.  If the value of _delegate is a delegate contract address then the functions  specified in _functionSignatures will be delegated to that address.",
        "params": {
          "_commitMessage": "A short description of the change and why it is made        This message is passed to the CommitMessage event.",
          "_delegate": "The address of a delegate contract to delegate to or zero",
          "_functionSignatures": "A list of function signatures listed one after the other"
        }
      }
    }
  },
  "userdoc": {
    "methods": {
      "constructor": "//////////////////////////////////////// VARIABLES ///////////////////////////////////////// /////////////////////////////////////// MODIFIERS ////////////////////////////////////////// //////////////////////////////////////// EVENTS //////////////////////////////////////////// ////////////////////////////////////// CONSTANTS /////////////////////////////////////////// ////////////////////////////////////////////////////////////////////////////////////////////",
      "updateContract(address,string,string)": {
        "notice": "////////////////////////////////////////////////////////////////////////////////////////////Updates functions in a transparent contract."
      }
    },
    "notice": "////////////////////////////////////////////////////////////////////////////////////////////////"
  }
}