{
  "contractName": "ProxyReceiverStorage_001_ERC1155MockReceiver",
  "abi": [
    {
      "constant": true,
      "inputs": [],
      "name": "shouldReject",
      "outputs": [
        {
          "name": "",
          "type": "bool"
        }
      ],
      "payable": false,
      "stateMutability": "view",
      "type": "function"
    },
    {
      "constant": true,
      "inputs": [
        {
          "name": "",
          "type": "bytes4"
        }
      ],
      "name": "delegates",
      "outputs": [
        {
          "name": "",
          "type": "address"
        }
      ],
      "payable": false,
      "stateMutability": "view",
      "type": "function"
    }
  ],
  "bytecode": "0x608060405234801561001057600080fd5b5061018c806100206000396000f3fe60806040526004361061004c576000357c0100000000000000000000000000000000000000000000000000000000900463ffffffff1680631dbb938114610051578063a0a2daf014610080575b600080fd5b34801561005d57600080fd5b5061006661011a565b604051808215151515815260200191505060405180910390f35b34801561008c57600080fd5b506100d8600480360360208110156100a357600080fd5b8101908080357bffffffffffffffffffffffffffffffffffffffffffffffffffffffff1916906020019092919050505061012d565b604051808273ffffffffffffffffffffffffffffffffffffffff1673ffffffffffffffffffffffffffffffffffffffff16815260200191505060405180910390f35b600360149054906101000a900460ff1681565b60006020528060005260406000206000915054906101000a900473ffffffffffffffffffffffffffffffffffffffff168156fea165627a7a72305820a89a1535b9a1041d2c7e30498f0b9a3f7b0a9bc1eca08dcf3f92d5bd25c54f890029",
  "source": "pragma solidity ^0.5.0;\n\nimport \"../ProxyBaseStorage.sol\";\n\n///////////////////////////////////////////////////////////////////////////////////////////////////\n/**\n * @title DelegatesStorage\n * @dev Defining storage inheritance for the delegate contract(s).\n *      Note:   This is not the only way to define your storage, DYOR.\n */\n///////////////////////////////////////////////////////////////////////////////////////////////////\n\ncontract ProxyReceiverStorage_001_ERC1155MockReceiver is ProxyBaseStorage {\n\n    //////////////////////////////////////////// VARS /////////////////////////////////////////////\n\n    // Note: if you alter these values in another delegate impl it affects this too\n    bool public shouldReject;\n\n    ///////////////////////////////////////////////////////////////////////////////////////////////\n\n}\n\n///////////////////////////////////////////////////////////////////////////////////////////////////\n\ncontract ProxyReceiverStorage_002_ERCXXXXFuture is ProxyReceiverStorage_001_ERC1155MockReceiver {\n\n    //////////////////////////////////////////// VARS /////////////////////////////////////////////\n\n    bool public shouldRejectXXXX; // var renamed to be specific to prevent clash with parent data version\n\n    ///////////////////////////////////////////////////////////////////////////////////////////////\n\n}\n\n///////////////////////////////////////////////////////////////////////////////////////////////////",
  "sourcePath": "/Users/rbenheidorn/Documents/NeonDistrict/erc1155-airdropper/erc-1155/contracts/ProxyReceiver/Delegates/DelegatesStorage.sol",
  "compiler": {
    "name": "solc",
    "version": "0.5.0+commit.1d4f565a.Emscripten.clang"
  },
  "schemaVersion": "3.0.9",
  "updatedAt": "2020-02-01T17:45:58.420Z",
  "devdoc": {
    "methods": {}
  },
  "userdoc": {
    "methods": {},
    "notice": "////////////////////////////////////////////////////////////////////////////////////////////////"
  }
}