{
  "contractName": "ProxyReceiverStorage_002_ERCXXXXFuture",
  "abi": [
    {
      "constant": true,
      "inputs": [],
      "name": "shouldReject",
      "outputs": [
        {
          "name": "",
          "type": "bool"
        }
      ],
      "payable": false,
      "stateMutability": "view",
      "type": "function"
    },
    {
      "constant": true,
      "inputs": [],
      "name": "shouldRejectXXXX",
      "outputs": [
        {
          "name": "",
          "type": "bool"
        }
      ],
      "payable": false,
      "stateMutability": "view",
      "type": "function"
    },
    {
      "constant": true,
      "inputs": [
        {
          "name": "",
          "type": "bytes4"
        }
      ],
      "name": "delegates",
      "outputs": [
        {
          "name": "",
          "type": "address"
        }
      ],
      "payable": false,
      "stateMutability": "view",
      "type": "function"
    }
  ],
  "bytecode": "0x608060405234801561001057600080fd5b506101d9806100206000396000f3fe608060405260043610610057576000357c0100000000000000000000000000000000000000000000000000000000900463ffffffff1680631dbb93811461005c57806391ad57bd1461008b578063a0a2daf0146100ba575b600080fd5b34801561006857600080fd5b50610071610154565b604051808215151515815260200191505060405180910390f35b34801561009757600080fd5b506100a0610167565b604051808215151515815260200191505060405180910390f35b3480156100c657600080fd5b50610112600480360360208110156100dd57600080fd5b8101908080357bffffffffffffffffffffffffffffffffffffffffffffffffffffffff1916906020019092919050505061017a565b604051808273ffffffffffffffffffffffffffffffffffffffff1673ffffffffffffffffffffffffffffffffffffffff16815260200191505060405180910390f35b600360149054906101000a900460ff1681565b600360159054906101000a900460ff1681565b60006020528060005260406000206000915054906101000a900473ffffffffffffffffffffffffffffffffffffffff168156fea165627a7a7230582006508e4785ae346cb872974134dfe31b906b5d7f7face081c66b1c54620991240029",
  "source": "pragma solidity ^0.5.0;\n\nimport \"../ProxyBaseStorage.sol\";\n\n///////////////////////////////////////////////////////////////////////////////////////////////////\n/**\n * @title DelegatesStorage\n * @dev Defining storage inheritance for the delegate contract(s).\n *      Note:   This is not the only way to define your storage, DYOR.\n */\n///////////////////////////////////////////////////////////////////////////////////////////////////\n\ncontract ProxyReceiverStorage_001_ERC1155MockReceiver is ProxyBaseStorage {\n\n    //////////////////////////////////////////// VARS /////////////////////////////////////////////\n\n    // Note: if you alter these values in another delegate impl it affects this too\n    bool public shouldReject;\n\n    ///////////////////////////////////////////////////////////////////////////////////////////////\n\n}\n\n///////////////////////////////////////////////////////////////////////////////////////////////////\n\ncontract ProxyReceiverStorage_002_ERCXXXXFuture is ProxyReceiverStorage_001_ERC1155MockReceiver {\n\n    //////////////////////////////////////////// VARS /////////////////////////////////////////////\n\n    bool public shouldRejectXXXX; // var renamed to be specific to prevent clash with parent data version\n\n    ///////////////////////////////////////////////////////////////////////////////////////////////\n\n}\n\n///////////////////////////////////////////////////////////////////////////////////////////////////",
  "sourcePath": "/Users/rbenheidorn/Documents/NeonDistrict/erc1155-airdropper/erc-1155/contracts/ProxyReceiver/Delegates/DelegatesStorage.sol",
  "compiler": {
    "name": "solc",
    "version": "0.5.0+commit.1d4f565a.Emscripten.clang"
  },
  "schemaVersion": "3.0.9",
  "updatedAt": "2020-02-01T17:45:58.421Z",
  "devdoc": {
    "methods": {}
  },
  "userdoc": {
    "methods": {},
    "notice": "////////////////////////////////////////////////////////////////////////////////////////////////"
  }
}