{
  "contractName": "ProxyRegistry",
  "abi": [
    {
      "constant": true,
      "inputs": [
        {
          "name": "",
          "type": "address"
        }
      ],
      "name": "proxies",
      "outputs": [
        {
          "name": "",
          "type": "address"
        }
      ],
      "payable": false,
      "stateMutability": "view",
      "type": "function"
    }
  ],
  "bytecode": "0x608060405234801561001057600080fd5b5061010d806100206000396000f3fe6080604052348015600f57600080fd5b506004361060285760003560e01c8063c455279114602d575b600080fd5b606c60048036036020811015604157600080fd5b81019080803573ffffffffffffffffffffffffffffffffffffffff16906020019092919050505060ae565b604051808273ffffffffffffffffffffffffffffffffffffffff1673ffffffffffffffffffffffffffffffffffffffff16815260200191505060405180910390f35b60006020528060005260406000206000915054906101000a900473ffffffffffffffffffffffffffffffffffffffff168156fea165627a7a723058209d7b8ff4f93d7ccd94bb26fbe7a3d807fa2fa6d2680d1aa76dbc941e0b8733510029",
  "source": "pragma solidity ^0.5.0;\n\nimport \"openzeppelin-solidity/contracts/token/ERC721/ERC721Full.sol\";\nimport \"openzeppelin-solidity/contracts/token/ERC721/ERC721Pausable.sol\";\nimport \"openzeppelin-solidity/contracts/access/roles/MinterRole.sol\";\nimport \"openzeppelin-solidity/contracts/ownership/Ownable.sol\";\nimport \"./Libraries/Strings.sol\";\n\ncontract OwnableDelegateProxy { }\n\ncontract ProxyRegistry {\n    mapping(address => OwnableDelegateProxy) public proxies;\n}\n\ncontract ERC721Test is ERC721Full, ERC721Pausable, MinterRole, Ownable {\n    using SafeMath for uint256;\n    using Strings for string;\n\n    address public proxyRegistryAddress;\n\n    constructor(\n        string memory tokenName,\n        string memory tokenSymbol,\n        address proxyRegistry\n    )\n    ERC721Full(tokenName, tokenSymbol)\n    public\n    {\n        proxyRegistryAddress = proxyRegistry;\n    }\n\n    /**\n     * Set proxy after contract creation\n     */\n\n    function setProxyRegistryAddress(address proxyRegistry) external onlyOwner {\n        proxyRegistryAddress = proxyRegistry;\n    }\n\n    /**\n     * Generic minting by the type ID\n     **/\n    function mint(address[] calldata to) external onlyMinter returns (bool) {\n        for (uint256 i = 0; i < to.length; ++i) {\n            _mintHelper(to[i]);\n        }\n        return true;\n    }\n\n    function _mintHelper(address to) internal returns (bool) {\n        uint256 tokenId = _getNextTokenId();\n        _mint(to, tokenId);\n        return true;\n    }\n\n    function _getNextTokenId() internal view returns (uint256) {\n        // FUNCTIONS RELY ON THIS LOGIC, DO NOT CHANGE FOR A COUNTER!!!\n        return totalSupply().add(1);\n    }\n\n    /**\n     * Token URIs in our contracts should not be set 1-1 for each NFT, that's insane\n     * Instead, use a generic format\n     **/\n    string public baseTokenURI = \"\";\n\n    function setBaseTokenURI(string calldata _baseTokenURI) external onlyOwner {\n        baseTokenURI = _baseTokenURI;\n    }\n\n    function tokenURI(uint256 _tokenId) external view returns (string memory) {\n        return Strings.strConcat(\n            baseTokenURI,\n            Strings.uint2str(_tokenId)\n        );\n    }\n\n    /**\n     * Override isApprovedForAll to whitelist user's OpenSea proxy accounts to enable gas-less listings.\n     */\n    function isApprovedForAll(\n        address tokenOwner,\n        address tokenOperator\n    )\n        public\n        view\n        returns (bool)\n    {\n        // Whitelist OpenSea proxy contract for easy trading.\n        ProxyRegistry proxyRegistry = ProxyRegistry(proxyRegistryAddress);\n        if (address(proxyRegistry.proxies(tokenOwner)) == tokenOperator) {\n            return true;\n        }\n\n        return super.isApprovedForAll(tokenOwner, tokenOperator);\n    }\n}\n",
  "sourcePath": "/Users/rbenheidorn/Documents/NeonDistrict/erc1155-airdropper/contracts/ERC721Test.sol",
  "compiler": {
    "name": "solc",
    "version": "0.5.5+commit.47a71e8f.Emscripten.clang"
  },
  "schemaVersion": "3.0.9",
  "updatedAt": "2020-02-01T19:02:58.506Z",
  "devdoc": {
    "methods": {}
  },
  "userdoc": {
    "methods": {}
  }
}